{
  "_format": "hh-sol-artifact-1",
  "contractName": "MyERC20UpgradebleV1",
  "sourceName": "contracts/MyERC20UpgradebleV1.sol",
  "abi": [
    {
      "anonymous": false,
      "inputs": [
        {
          "indexed": true,
          "internalType": "address",
          "name": "owner",
          "type": "address"
        },
        {
          "indexed": true,
          "internalType": "address",
          "name": "spender",
          "type": "address"
        },
        {
          "indexed": false,
          "internalType": "uint256",
          "name": "value",
          "type": "uint256"
        }
      ],
      "name": "Approval",
      "type": "event"
    },
    {
      "anonymous": false,
      "inputs": [
        {
          "indexed": false,
          "internalType": "uint8",
          "name": "version",
          "type": "uint8"
        }
      ],
      "name": "Initialized",
      "type": "event"
    },
    {
      "anonymous": false,
      "inputs": [
        {
          "indexed": true,
          "internalType": "address",
          "name": "previousOwner",
          "type": "address"
        },
        {
          "indexed": true,
          "internalType": "address",
          "name": "newOwner",
          "type": "address"
        }
      ],
      "name": "OwnershipTransferred",
      "type": "event"
    },
    {
      "anonymous": false,
      "inputs": [
        {
          "indexed": true,
          "internalType": "address",
          "name": "from",
          "type": "address"
        },
        {
          "indexed": true,
          "internalType": "address",
          "name": "to",
          "type": "address"
        },
        {
          "indexed": false,
          "internalType": "uint256",
          "name": "value",
          "type": "uint256"
        }
      ],
      "name": "Transfer",
      "type": "event"
    },
    {
      "inputs": [
        {
          "internalType": "address",
          "name": "owner",
          "type": "address"
        },
        {
          "internalType": "address",
          "name": "spender",
          "type": "address"
        }
      ],
      "name": "allowance",
      "outputs": [
        {
          "internalType": "uint256",
          "name": "",
          "type": "uint256"
        }
      ],
      "stateMutability": "view",
      "type": "function"
    },
    {
      "inputs": [
        {
          "internalType": "address",
          "name": "spender",
          "type": "address"
        },
        {
          "internalType": "uint256",
          "name": "amount",
          "type": "uint256"
        }
      ],
      "name": "approve",
      "outputs": [
        {
          "internalType": "bool",
          "name": "",
          "type": "bool"
        }
      ],
      "stateMutability": "nonpayable",
      "type": "function"
    },
    {
      "inputs": [
        {
          "internalType": "address",
          "name": "account",
          "type": "address"
        }
      ],
      "name": "balanceOf",
      "outputs": [
        {
          "internalType": "uint256",
          "name": "",
          "type": "uint256"
        }
      ],
      "stateMutability": "view",
      "type": "function"
    },
    {
      "inputs": [],
      "name": "decimals",
      "outputs": [
        {
          "internalType": "uint8",
          "name": "",
          "type": "uint8"
        }
      ],
      "stateMutability": "view",
      "type": "function"
    },
    {
      "inputs": [
        {
          "internalType": "address",
          "name": "spender",
          "type": "address"
        },
        {
          "internalType": "uint256",
          "name": "subtractedValue",
          "type": "uint256"
        }
      ],
      "name": "decreaseAllowance",
      "outputs": [
        {
          "internalType": "bool",
          "name": "",
          "type": "bool"
        }
      ],
      "stateMutability": "nonpayable",
      "type": "function"
    },
    {
      "inputs": [
        {
          "internalType": "address",
          "name": "spender",
          "type": "address"
        },
        {
          "internalType": "uint256",
          "name": "addedValue",
          "type": "uint256"
        }
      ],
      "name": "increaseAllowance",
      "outputs": [
        {
          "internalType": "bool",
          "name": "",
          "type": "bool"
        }
      ],
      "stateMutability": "nonpayable",
      "type": "function"
    },
    {
      "inputs": [
        {
          "internalType": "uint256",
          "name": "initialSupply",
          "type": "uint256"
        }
      ],
      "name": "initialize",
      "outputs": [],
      "stateMutability": "nonpayable",
      "type": "function"
    },
    {
      "inputs": [],
      "name": "name",
      "outputs": [
        {
          "internalType": "string",
          "name": "",
          "type": "string"
        }
      ],
      "stateMutability": "view",
      "type": "function"
    },
    {
      "inputs": [],
      "name": "owner",
      "outputs": [
        {
          "internalType": "address",
          "name": "",
          "type": "address"
        }
      ],
      "stateMutability": "view",
      "type": "function"
    },
    {
      "inputs": [],
      "name": "renounceOwnership",
      "outputs": [],
      "stateMutability": "nonpayable",
      "type": "function"
    },
    {
      "inputs": [],
      "name": "symbol",
      "outputs": [
        {
          "internalType": "string",
          "name": "",
          "type": "string"
        }
      ],
      "stateMutability": "view",
      "type": "function"
    },
    {
      "inputs": [],
      "name": "totalSupply",
      "outputs": [
        {
          "internalType": "uint256",
          "name": "",
          "type": "uint256"
        }
      ],
      "stateMutability": "view",
      "type": "function"
    },
    {
      "inputs": [
        {
          "internalType": "address",
          "name": "to",
          "type": "address"
        },
        {
          "internalType": "uint256",
          "name": "amount",
          "type": "uint256"
        }
      ],
      "name": "transfer",
      "outputs": [
        {
          "internalType": "bool",
          "name": "",
          "type": "bool"
        }
      ],
      "stateMutability": "nonpayable",
      "type": "function"
    },
    {
      "inputs": [
        {
          "internalType": "address",
          "name": "from",
          "type": "address"
        },
        {
          "internalType": "address",
          "name": "to",
          "type": "address"
        },
        {
          "internalType": "uint256",
          "name": "amount",
          "type": "uint256"
        }
      ],
      "name": "transferFrom",
      "outputs": [
        {
          "internalType": "bool",
          "name": "",
          "type": "bool"
        }
      ],
      "stateMutability": "nonpayable",
      "type": "function"
    },
    {
      "inputs": [
        {
          "internalType": "address",
          "name": "newOwner",
          "type": "address"
        }
      ],
      "name": "transferOwnership",
      "outputs": [],
      "stateMutability": "nonpayable",
      "type": "function"
    }
  ],
  "bytecode": "0x608060405234801561001057600080fd5b50612195806100206000396000f3fe608060405234801561001057600080fd5b50600436106100f55760003560e01c8063715018a611610097578063a9059cbb11610066578063a9059cbb1461028a578063dd62ed3e146102ba578063f2fde38b146102ea578063fe4b84df14610306576100f5565b8063715018a6146102145780638da5cb5b1461021e57806395d89b411461023c578063a457c2d71461025a576100f5565b806323b872dd116100d357806323b872dd14610166578063313ce5671461019657806339509351146101b457806370a08231146101e4576100f5565b806306fdde03146100fa578063095ea7b31461011857806318160ddd14610148575b600080fd5b610102610322565b60405161010f91906112b2565b60405180910390f35b610132600480360381019061012d919061136d565b6103b4565b60405161013f91906113c8565b60405180910390f35b6101506103d7565b60405161015d91906113f2565b60405180910390f35b610180600480360381019061017b919061140d565b6103e1565b60405161018d91906113c8565b60405180910390f35b61019e610410565b6040516101ab919061147c565b60405180910390f35b6101ce60048036038101906101c9919061136d565b610419565b6040516101db91906113c8565b60405180910390f35b6101fe60048036038101906101f99190611497565b610450565b60405161020b91906113f2565b60405180910390f35b61021c610499565b005b6102266104ad565b60405161023391906114d3565b60405180910390f35b6102446104d7565b60405161025191906112b2565b60405180910390f35b610274600480360381019061026f919061136d565b610569565b60405161028191906113c8565b60405180910390f35b6102a4600480360381019061029f919061136d565b6105e0565b6040516102b191906113c8565b60405180910390f35b6102d460048036038101906102cf91906114ee565b610603565b6040516102e191906113f2565b60405180910390f35b61030460048036038101906102ff9190611497565b61068a565b005b610320600480360381019061031b919061152e565b61070d565b005b6060603680546103319061158a565b80601f016020809104026020016040519081016040528092919081815260200182805461035d9061158a565b80156103aa5780601f1061037f576101008083540402835291602001916103aa565b820191906000526020600020905b81548152906001019060200180831161038d57829003601f168201915b5050505050905090565b6000806103bf6108e8565b90506103cc8185856108f0565b600191505092915050565b6000603554905090565b6000806103ec6108e8565b90506103f9858285610ab9565b610404858585610b45565b60019150509392505050565b60006012905090565b6000806104246108e8565b90506104458185856104368589610603565b61044091906115ea565b6108f0565b600191505092915050565b6000603360008373ffffffffffffffffffffffffffffffffffffffff1673ffffffffffffffffffffffffffffffffffffffff168152602001908152602001600020549050919050565b6104a1610dc7565b6104ab6000610e45565b565b6000606560009054906101000a900473ffffffffffffffffffffffffffffffffffffffff16905090565b6060603780546104e69061158a565b80601f01602080910402602001604051908101604052809291908181526020018280546105129061158a565b801561055f5780601f106105345761010080835404028352916020019161055f565b820191906000526020600020905b81548152906001019060200180831161054257829003601f168201915b5050505050905090565b6000806105746108e8565b905060006105828286610603565b9050838110156105c7576040517f08c379a00000000000000000000000000000000000000000000000000000000081526004016105be90611690565b60405180910390fd5b6105d482868684036108f0565b60019250505092915050565b6000806105eb6108e8565b90506105f8818585610b45565b600191505092915050565b6000603460008473ffffffffffffffffffffffffffffffffffffffff1673ffffffffffffffffffffffffffffffffffffffff16815260200190815260200160002060008373ffffffffffffffffffffffffffffffffffffffff1673ffffffffffffffffffffffffffffffffffffffff16815260200190815260200160002054905092915050565b610692610dc7565b600073ffffffffffffffffffffffffffffffffffffffff168173ffffffffffffffffffffffffffffffffffffffff1603610701576040517f08c379a00000000000000000000000000000000000000000000000000000000081526004016106f890611722565b60405180910390fd5b61070a81610e45565b50565b60008060019054906101000a900460ff1615905080801561073e5750600160008054906101000a900460ff1660ff16105b8061076b575061074d30610f0b565b15801561076a5750600160008054906101000a900460ff1660ff16145b5b6107aa576040517f08c379a00000000000000000000000000000000000000000000000000000000081526004016107a1906117b4565b60405180910390fd5b60016000806101000a81548160ff021916908360ff16021790555080156107e7576001600060016101000a81548160ff0219169083151502179055505b61085b6040518060400160405280600d81526020017f4e696b6f6c6179546f6b656e31000000000000000000000000000000000000008152506040518060400160405280600481526020017f4e544b3100000000000000000000000000000000000000000000000000000000815250610f2e565b610863610f8b565b61088b3361086f610410565b600a61087b9190611907565b846108869190611952565b610fe4565b80156108e45760008060016101000a81548160ff0219169083151502179055507f7f26b83ff96e1f2b6a682f133852f6798a09c465da95921460cefb384740249860016040516108db91906119f1565b60405180910390a15b5050565b600033905090565b600073ffffffffffffffffffffffffffffffffffffffff168373ffffffffffffffffffffffffffffffffffffffff160361095f576040517f08c379a000000000000000000000000000000000000000000000000000000000815260040161095690611a7e565b60405180910390fd5b600073ffffffffffffffffffffffffffffffffffffffff168273ffffffffffffffffffffffffffffffffffffffff16036109ce576040517f08c379a00000000000000000000000000000000000000000000000000000000081526004016109c590611b10565b60405180910390fd5b80603460008573ffffffffffffffffffffffffffffffffffffffff1673ffffffffffffffffffffffffffffffffffffffff16815260200190815260200160002060008473ffffffffffffffffffffffffffffffffffffffff1673ffffffffffffffffffffffffffffffffffffffff168152602001908152602001600020819055508173ffffffffffffffffffffffffffffffffffffffff168373ffffffffffffffffffffffffffffffffffffffff167f8c5be1e5ebec7d5bd14f71427d1e84f3dd0314c0f7b2291e5b200ac8c7c3b92583604051610aac91906113f2565b60405180910390a3505050565b6000610ac58484610603565b90507fffffffffffffffffffffffffffffffffffffffffffffffffffffffffffffffff8114610b3f5781811015610b31576040517f08c379a0000000000000000000000000000000000000000000000000000000008152600401610b2890611b7c565b60405180910390fd5b610b3e84848484036108f0565b5b50505050565b600073ffffffffffffffffffffffffffffffffffffffff168373ffffffffffffffffffffffffffffffffffffffff1603610bb4576040517f08c379a0000000000000000000000000000000000000000000000000000000008152600401610bab90611c0e565b60405180910390fd5b600073ffffffffffffffffffffffffffffffffffffffff168273ffffffffffffffffffffffffffffffffffffffff1603610c23576040517f08c379a0000000000000000000000000000000000000000000000000000000008152600401610c1a90611ca0565b60405180910390fd5b610c2e838383611144565b6000603360008573ffffffffffffffffffffffffffffffffffffffff1673ffffffffffffffffffffffffffffffffffffffff16815260200190815260200160002054905081811015610cb5576040517f08c379a0000000000000000000000000000000000000000000000000000000008152600401610cac90611d32565b60405180910390fd5b818103603360008673ffffffffffffffffffffffffffffffffffffffff1673ffffffffffffffffffffffffffffffffffffffff1681526020019081526020016000208190555081603360008573ffffffffffffffffffffffffffffffffffffffff1673ffffffffffffffffffffffffffffffffffffffff1681526020019081526020016000206000828254610d4a91906115ea565b925050819055508273ffffffffffffffffffffffffffffffffffffffff168473ffffffffffffffffffffffffffffffffffffffff167fddf252ad1be2c89b69c2b068fc378daa952ba7f163c4a11628f55a4df523b3ef84604051610dae91906113f2565b60405180910390a3610dc1848484611149565b50505050565b610dcf6108e8565b73ffffffffffffffffffffffffffffffffffffffff16610ded6104ad565b73ffffffffffffffffffffffffffffffffffffffff1614610e43576040517f08c379a0000000000000000000000000000000000000000000000000000000008152600401610e3a90611d9e565b60405180910390fd5b565b6000606560009054906101000a900473ffffffffffffffffffffffffffffffffffffffff16905081606560006101000a81548173ffffffffffffffffffffffffffffffffffffffff021916908373ffffffffffffffffffffffffffffffffffffffff1602179055508173ffffffffffffffffffffffffffffffffffffffff168173ffffffffffffffffffffffffffffffffffffffff167f8be0079c531659141344cd1fd0a4f28419497f9722a3daafe3b4186f6b6457e060405160405180910390a35050565b6000808273ffffffffffffffffffffffffffffffffffffffff163b119050919050565b600060019054906101000a900460ff16610f7d576040517f08c379a0000000000000000000000000000000000000000000000000000000008152600401610f7490611e30565b60405180910390fd5b610f87828261114e565b5050565b600060019054906101000a900460ff16610fda576040517f08c379a0000000000000000000000000000000000000000000000000000000008152600401610fd190611e30565b60405180910390fd5b610fe26111c1565b565b600073ffffffffffffffffffffffffffffffffffffffff168273ffffffffffffffffffffffffffffffffffffffff1603611053576040517f08c379a000000000000000000000000000000000000000000000000000000000815260040161104a90611e9c565b60405180910390fd5b61105f60008383611144565b806035600082825461107191906115ea565b9250508190555080603360008473ffffffffffffffffffffffffffffffffffffffff1673ffffffffffffffffffffffffffffffffffffffff16815260200190815260200160002060008282546110c791906115ea565b925050819055508173ffffffffffffffffffffffffffffffffffffffff16600073ffffffffffffffffffffffffffffffffffffffff167fddf252ad1be2c89b69c2b068fc378daa952ba7f163c4a11628f55a4df523b3ef8360405161112c91906113f2565b60405180910390a361114060008383611149565b5050565b505050565b505050565b600060019054906101000a900460ff1661119d576040517f08c379a000000000000000000000000000000000000000000000000000000000815260040161119490611e30565b60405180910390fd5b81603690816111ac919061208d565b5080603790816111bc919061208d565b505050565b600060019054906101000a900460ff16611210576040517f08c379a000000000000000000000000000000000000000000000000000000000815260040161120790611e30565b60405180910390fd5b61122061121b6108e8565b610e45565b565b600081519050919050565b600082825260208201905092915050565b60005b8381101561125c578082015181840152602081019050611241565b60008484015250505050565b6000601f19601f8301169050919050565b600061128482611222565b61128e818561122d565b935061129e81856020860161123e565b6112a781611268565b840191505092915050565b600060208201905081810360008301526112cc8184611279565b905092915050565b600080fd5b600073ffffffffffffffffffffffffffffffffffffffff82169050919050565b6000611304826112d9565b9050919050565b611314816112f9565b811461131f57600080fd5b50565b6000813590506113318161130b565b92915050565b6000819050919050565b61134a81611337565b811461135557600080fd5b50565b60008135905061136781611341565b92915050565b60008060408385031215611384576113836112d4565b5b600061139285828601611322565b92505060206113a385828601611358565b9150509250929050565b60008115159050919050565b6113c2816113ad565b82525050565b60006020820190506113dd60008301846113b9565b92915050565b6113ec81611337565b82525050565b600060208201905061140760008301846113e3565b92915050565b600080600060608486031215611426576114256112d4565b5b600061143486828701611322565b935050602061144586828701611322565b925050604061145686828701611358565b9150509250925092565b600060ff82169050919050565b61147681611460565b82525050565b6000602082019050611491600083018461146d565b92915050565b6000602082840312156114ad576114ac6112d4565b5b60006114bb84828501611322565b91505092915050565b6114cd816112f9565b82525050565b60006020820190506114e860008301846114c4565b92915050565b60008060408385031215611505576115046112d4565b5b600061151385828601611322565b925050602061152485828601611322565b9150509250929050565b600060208284031215611544576115436112d4565b5b600061155284828501611358565b91505092915050565b7f4e487b7100000000000000000000000000000000000000000000000000000000600052602260045260246000fd5b600060028204905060018216806115a257607f821691505b6020821081036115b5576115b461155b565b5b50919050565b7f4e487b7100000000000000000000000000000000000000000000000000000000600052601160045260246000fd5b60006115f582611337565b915061160083611337565b9250828201905080821115611618576116176115bb565b5b92915050565b7f45524332303a2064656372656173656420616c6c6f77616e63652062656c6f7760008201527f207a65726f000000000000000000000000000000000000000000000000000000602082015250565b600061167a60258361122d565b91506116858261161e565b604082019050919050565b600060208201905081810360008301526116a98161166d565b9050919050565b7f4f776e61626c653a206e6577206f776e657220697320746865207a65726f206160008201527f6464726573730000000000000000000000000000000000000000000000000000602082015250565b600061170c60268361122d565b9150611717826116b0565b604082019050919050565b6000602082019050818103600083015261173b816116ff565b9050919050565b7f496e697469616c697a61626c653a20636f6e747261637420697320616c72656160008201527f647920696e697469616c697a6564000000000000000000000000000000000000602082015250565b600061179e602e8361122d565b91506117a982611742565b604082019050919050565b600060208201905081810360008301526117cd81611791565b9050919050565b60008160011c9050919050565b6000808291508390505b600185111561182b57808604811115611807576118066115bb565b5b60018516156118165780820291505b8081029050611824856117d4565b94506117eb565b94509492505050565b6000826118445760019050611900565b816118525760009050611900565b81600181146118685760028114611872576118a1565b6001915050611900565b60ff841115611884576118836115bb565b5b8360020a91508482111561189b5761189a6115bb565b5b50611900565b5060208310610133831016604e8410600b84101617156118d65782820a9050838111156118d1576118d06115bb565b5b611900565b6118e384848460016117e1565b925090508184048111156118fa576118f96115bb565b5b81810290505b9392505050565b600061191282611337565b915061191d83611460565b925061194a7fffffffffffffffffffffffffffffffffffffffffffffffffffffffffffffffff8484611834565b905092915050565b600061195d82611337565b915061196883611337565b9250817fffffffffffffffffffffffffffffffffffffffffffffffffffffffffffffffff04831182151516156119a1576119a06115bb565b5b828202905092915050565b6000819050919050565b6000819050919050565b60006119db6119d66119d1846119ac565b6119b6565b611460565b9050919050565b6119eb816119c0565b82525050565b6000602082019050611a0660008301846119e2565b92915050565b7f45524332303a20617070726f76652066726f6d20746865207a65726f2061646460008201527f7265737300000000000000000000000000000000000000000000000000000000602082015250565b6000611a6860248361122d565b9150611a7382611a0c565b604082019050919050565b60006020820190508181036000830152611a9781611a5b565b9050919050565b7f45524332303a20617070726f766520746f20746865207a65726f20616464726560008201527f7373000000000000000000000000000000000000000000000000000000000000602082015250565b6000611afa60228361122d565b9150611b0582611a9e565b604082019050919050565b60006020820190508181036000830152611b2981611aed565b9050919050565b7f45524332303a20696e73756666696369656e7420616c6c6f77616e6365000000600082015250565b6000611b66601d8361122d565b9150611b7182611b30565b602082019050919050565b60006020820190508181036000830152611b9581611b59565b9050919050565b7f45524332303a207472616e736665722066726f6d20746865207a65726f20616460008201527f6472657373000000000000000000000000000000000000000000000000000000602082015250565b6000611bf860258361122d565b9150611c0382611b9c565b604082019050919050565b60006020820190508181036000830152611c2781611beb565b9050919050565b7f45524332303a207472616e7366657220746f20746865207a65726f206164647260008201527f6573730000000000000000000000000000000000000000000000000000000000602082015250565b6000611c8a60238361122d565b9150611c9582611c2e565b604082019050919050565b60006020820190508181036000830152611cb981611c7d565b9050919050565b7f45524332303a207472616e7366657220616d6f756e742065786365656473206260008201527f616c616e63650000000000000000000000000000000000000000000000000000602082015250565b6000611d1c60268361122d565b9150611d2782611cc0565b604082019050919050565b60006020820190508181036000830152611d4b81611d0f565b9050919050565b7f4f776e61626c653a2063616c6c6572206973206e6f7420746865206f776e6572600082015250565b6000611d8860208361122d565b9150611d9382611d52565b602082019050919050565b60006020820190508181036000830152611db781611d7b565b9050919050565b7f496e697469616c697a61626c653a20636f6e7472616374206973206e6f74206960008201527f6e697469616c697a696e67000000000000000000000000000000000000000000602082015250565b6000611e1a602b8361122d565b9150611e2582611dbe565b604082019050919050565b60006020820190508181036000830152611e4981611e0d565b9050919050565b7f45524332303a206d696e7420746f20746865207a65726f206164647265737300600082015250565b6000611e86601f8361122d565b9150611e9182611e50565b602082019050919050565b60006020820190508181036000830152611eb581611e79565b9050919050565b7f4e487b7100000000000000000000000000000000000000000000000000000000600052604160045260246000fd5b60008190508160005260206000209050919050565b60006020601f8301049050919050565b600082821b905092915050565b600060088302611f4d7fffffffffffffffffffffffffffffffffffffffffffffffffffffffffffffffff82611f10565b611f578683611f10565b95508019841693508086168417925050509392505050565b6000611f8a611f85611f8084611337565b6119b6565b611337565b9050919050565b6000819050919050565b611fa483611f6f565b611fb8611fb082611f91565b848454611f1d565b825550505050565b600090565b611fcd611fc0565b611fd8818484611f9b565b505050565b5b81811015611ffc57611ff1600082611fc5565b600181019050611fde565b5050565b601f8211156120415761201281611eeb565b61201b84611f00565b8101602085101561202a578190505b61203e61203685611f00565b830182611fdd565b50505b505050565b600082821c905092915050565b600061206460001984600802612046565b1980831691505092915050565b600061207d8383612053565b9150826002028217905092915050565b61209682611222565b67ffffffffffffffff8111156120af576120ae611ebc565b5b6120b9825461158a565b6120c4828285612000565b600060209050601f8311600181146120f757600084156120e5578287015190505b6120ef8582612071565b865550612157565b601f19841661210586611eeb565b60005b8281101561212d57848901518255600182019150602085019450602081019050612108565b8683101561214a5784890151612146601f891682612053565b8355505b6001600288020188555050505b50505050505056fea264697066735822122081321f4976b22af5ae7a06cb3f3ea98d9ccf9aca565d30997d4a9316544b215e64736f6c63430008100033",
  "linkReferences": {},
  "deployedLinkReferences": {}
}